:100000000C943F010C9460010C9460010C9460010D
:100010000C9460010C9460010C9460010C946001DC
:100020000C9460010C9460010C9460010C946001CC
:100030000C9460010C9460010C94E5040C94600134
:100040000C9460010C9460010C9460010C946001AC
:100050000C9460010C9460010C9460010C9460019C
:100060000C9460010C9460010C9460010C9460018C
:100070000C9460010C9460010C9460010C9460017C
:100080000C9460010C9460010C9460010C9460016C
:100090000C9460010C9460010C9460010C9460015C
:1000A0000C9460010C9460010C9460010C9460014C
:1000B0000C9460010C9460010C9460010C9460013C
:1000C0000C9460010C9460010C9460010C9460012C
:1000D0000C9460010C9460010C9460010C9460011C
:1000E0000C9460010C9460010C9460010C9460010C
:1000F0000C9460010C9460010C9460010C946001FC
:100100000C9460010C9460010C9460010C946001EB
:100110000C9460010C9460010C9460010C946001DB
:100120000C9460010C9460010C9460010C946001CB
:100130000C9460010C9460010C9460010C946001BB
:100140000C9460010C9460010C9460010C946001AB
:100150000C9460010C9460010C9460010C9460019B
:100160000C9460010C9460010C9460010C9460018B
:100170000C9460010C9460010C9460010C9460017B
:100180000C9460010C9460010C9460010C9460016B
:100190000C9460010C9460010C9460010C9460015B
:1001A0000C9460010C9460010C9460010C9460014B
:1001B0000C9460010C9460010C9460010C9460013B
:1001C0000C9460010C9460010C9460010C9460012B
:1001D0000C9460010C9460010C9460010C9460011B
:1001E0000C9460010C9460010C9460010C9460010B
:1001F0000C9460010C9460010C946001076342361A
:10020000B79BD8A71A39685618AEBAAB558C1D3CA7
:10021000B7CC5763BD6DEDFD753EF6177231BF006B
:100220000000803F08000000BE922449123EABAAA5
:10023000AA2ABECDCCCC4C3E00000080BEABAAAA00
:10024000AA3E00000000BF000000803F0000000048
:1002500000084178D3BB4387D1133D190E3CC3BD81
:100260004282AD2B3E68EC8276BED98FE1A93E4C2E
:1002700080EFFFBE01C4FF7F3F000000000011249B
:100280001FBECFEFCDBFDFE3DEBF00E00CBF10E24B
:10029000A0E0B0E2E0EEF1E100E00BBF02C00790A9
:1002A0000D92A432B107D9F720E2A4E2B0E201C076
:1002B0001D92A532B207E1F70E94F6040C94EE08F5
:1002C0000C94000088E08093410684E0809342060D
:1002D0008CE08093A6081092A70883E08093A5087D
:1002E00088E18093A4080895E1EAF8E0908195FF01
:1002F000FDCF8093A00808952F923F924F925F9276
:100300006F927F928F929F92AF92BF92CF92DF9225
:10031000EF92FF920F931F93CF93DF93CDB7DEB78A
:10032000EE97CDBFDEBF8C014FA358A769A77AA770
:1003300020E030E040E85FE36FA178A589A59AA5A9
:100340000E94CE05882339F120E030E0A9016FA199
:1003500078A589A59AA50E94850618160CF009C1F2
:100360000BAF1CAF09AF1AAF1FA618AA1DAA1EAA71
:100370001FAA18AE80E090E0A0E8BFE389AB9AAB7B
:10038000ABABBCABDE011196ADA3BEA3BDA1BDAFAF
:10039000EEA1EEAFE2C0D8013C9111962C911197DD
:1003A00012965C91129713964C91ECC0F601119243
:1003B0001192119211926F01A114B10409F449C074
:1003C0002FA538A92017310709F443C0F101EE0F1A
:1003D000FF1FE20DF31DE80DF91DEE0FFF1FEE0FDD
:1003E000FF1F21E030E02C0F3D1F2E0F3F1FF701B4
:1003F00080819181A281B381F90180839183A2835D
:10040000B383B401092C000C880B990B0E94D5050D
:100410006BA77CA78DA79EA720E030E040E050E4CA
:100420006FA178A589A59AA50E9461059B01AC01E1
:100430006BA57CA58DA59EA50E94CE05882324F4DE
:10044000FFEF8F1A9F0A05C02FEF221A320A812C64
:10045000912C0F5F1F4F34E0E30EF11CB801012E09
:10046000000C880B990B0E94D5059B01AC016FA174
:1004700078A589A59AA50E94850618160CF496CF32
:100480008FEFA81AB80A9CE0690E711CACE04A0E06
:10049000511CB5010B2C000C880B990B0E94D50543
:1004A0009B01AC016FA178A589A59AA50E9485063C
:1004B00018162CF47201630100E010E077CFE9AD6B
:1004C000FAADC190D190E190F190E9AFFAAF20E0A0
:1004D00030E040E85FE36FA178A589A59AA50E9466
:1004E0006105AB01BC018DAD9EAD0E947C019B01FD
:1004F000AC01C701B6010E948A0629A93AA94BA9F5
:100500005CA90E948A069B01AC016DA97EA98FA9F6
:1005100098AD0E9462056DAB7EAB8FAB98AF89A999
:100520009AA9ABA9BCA9B05889AB9AABABABBCAB91
:10053000AFA5B8A91196AFA7B8ABBD01BB0F880B8B
:10054000990B0E94D5059B01AC016FA178A589A5E7
:100550009AA50E94850618168CF4FE0131963F017B
:100560004BAC5CACA12CB12C812C912C212C312CCE
:10057000A1CF30E020E050E040E004C03DA92EA92A
:100580005FA948AD632F722F852F942FEE96CDBFB4
:10059000DEBFDF91CF911F910F91FF90EF90DF9021
:1005A000CF90BF90AF909F908F907F906F905F9013
:1005B0004F903F902F900895AF92BF92CF92DF92CD
:1005C000EF92FF920F931F93CF93DF935C0169012A
:1005D0007A0120E030E0A901C701B6010E9485063A
:1005E00018160CF125C02196BE010D2E000C880BAB
:1005F000990B0E94D5059B01AC01C701B6010E9471
:100600008506181684F30F5F1F4FB801012E000CEA
:10061000880B990B0E94D505A70196010E94CE0573
:1006200088231CF03AC000E010E0C0E0D0E0DBCF4F
:10063000B701A601C5010E947C0120E030E0A901BC
:10064000C701B6010E94850618167CF500E010E08F
:1006500021C02196BE010D2E000C880B990B0E9423
:10066000D5059B01AC01C701B6010E94850618168D
:1006700084F30F5F1F4FB801012E000C880B990BFC
:100680000E94D5059B01AC01C701B6010E948506F9
:1006900018165CF4C0E0D0E0DCCFB701A601C501BC
:1006A0000E947C0100E010E0F5CFDF91CF911F9117
:1006B0000F91FF90EF90DF90CF90BF90AF90089593
:1006C0002F923F924F925F926F927F928F929F9262
:1006D000AF92BF92CF92DF92EF92FF920F931F9350
:1006E000CF93DF93CDB7DEB7CA55D109CDBFDEBFFB
:1006F00068968FAF689769969FAF69972D964CAFB4
:100700005DAF6EAF7FAF2D9720E030E0A9012D9651
:100710006CAD7DAD8EAD9FAD2D970E9485061816F0
:100720000CF02BC1CE01859667968EAF9FAF679771
:10073000412C512CFE0131963F016A96EFAF6A972A
:100740006B967FAE6B970EC14814590409F44AC0EA
:100750002016310609F446C0F501EE0FFF1FEA0D21
:10076000FB1DEC0DFD1DEE0FFF1FEE0FFF1F9F0188
:10077000260D371DF70180819181A281B381F90196
:1007800080839183A283B383B6010D2C000C880B68
:10079000990B0E94D50561966CAF7DAF8EAF9FAF70
:1007A000619720E030E040E050E42D966CAD7DADE7
:1007B0008EAD9FAD2D970E9461059B01AC016196A6
:1007C0006CAD7DAD8EAD9FAD61970E94CE05882347
:1007D00024F4FFEFCF1ADF0A05C08FEFA81AB80A7A
:1007E000C12CD12C0F5F1F4F94E0E90EF11CB80112
:1007F000012E000C880B990B0E94D5059B01AC01C2
:100800002D966CAD7DAD8EAD9FAD2D970E9485066A
:1008100018160CF499CFEFEF8E1A9E0A63968EADE0
:100820009FAD63970C9663968EAF9FAF6397B401AD
:10083000092C000C880B990B0E94D5059B01AC017B
:100840002D966CAD7DAD8EAD9FAD2D970E9485062A
:1008500018163CF46396EEACFFAC639700E010E032
:1008600073CFB201620D731D072E000C880B990B1C
:100870000E94D5059B01AC0160E070E080E89FEB31
:100880000E94F7066B017C0120E030E040E85FE366
:100890002D966CAD7DAD8EAD9FAD2D970E946105FF
:1008A000AB01BC016A968FAD6A976B969FAD6B9753
:1008B0000E947C019B01AC01C701B6010E948A061F
:1008C0006596EEADFFAD65976193719381939193BA
:1008D0006596EEAFFFAF6597FFEF2F1A3F0AB101A4
:1008E000032C000C880B990B0E94D5059B01AC01D1
:1008F0002D966CAD7DAD8EAD9FAD2D970E9485067A
:1009000018169CF468968FAD689762968FAF6297C1
:1009100069969FAD699763969FAF6397812C912CE1
:10092000C12CD12CA12CB12C95CFEFEF4E1A5E0A21
:1009300067968EAD9FAD67970C9667968EAF9FAF0B
:100940006797B201052C000C880B990B0E94D50506
:100950002D962CAD3DAD4EAD5FAD2D970E94CE05D1
:1009600088235CF46796EEADFFAD67976596EEAFB2
:10097000FFAF6597212C312CC5CF2D962CAD3DAD09
:100980004EAD5FAD2D97BE016B5D7F4F68968FAD0D
:10099000689769969FAD69970E94DC02C65ADF4F3F
:1009A000CDBFDEBFDF91CF911F910F91FF90EF90F0
:1009B000DF90CF90BF90AF909F908F907F906F907F
:1009C0005F904F903F902F9008951F920F920FB617
:1009D0000F9211248F93809124208F5F8093242085
:1009E0008F910F900FBE0F901F901895CF93DF93AC
:1009F000CDB7DEB7A497CDBFDEBFE0EAF0E08281DD
:100A000084608283E0E0F8E087E08083118283E005
:100A100086838FEF90E086A397A378940E9462016B
:100A2000C12C6894DD24D3F884E2E0E0F0E2DE013A
:100A3000119601900D928A95E1F7F60110A211A28C
:100A400006E010E040E050E060E470E4CE01019682
:100A50000E947C0140E050E060E470E4CE01019629
:100A60000E946003F601E0A0F1A080E00E94740102
:100A7000809124200E9474018E2D0E94740180E0D8
:100A80000E94740101501109E9F6F60100A111A1BB
:100A90008FEF0E947401809124200E947401802FA6
:100AA0000E9474018FEF0E94740110922420FFE3D2
:100AB0002DE083E0F15020408040E1F700C00000CD
:100AC000B3CF5058BB27AA270E9479050C944B0638
:100AD0000E943D0638F00E94440620F039F49F3F02
:100AE00019F426F40C943A060EF4E095E7FB0C9406
:100AF0003406E92F0E945C0658F3BA1762077307A1
:100B00008407950720F079F4A6F50C947E060EF480
:100B1000E0950B2EBA2FA02D0B01B90190010C010D
:100B2000CA01A0011124FF27591B99F0593F50F425
:100B3000503E68F11A16F040A22F232F342F44277D
:100B4000585FF3CF469537952795A795F040539575
:100B5000C9F77EF41F16BA0B620B730B840BBAF045
:100B60009150A1F0FF0FBB1F661F771F881FC2F7B0
:100B70000EC0BA0F621F731F841F48F487957795C4
:100B80006795B795F7959E3F08F0B0CF9395880F7E
:100B900008F09927EE0F9795879508950E94100603
:100BA00008F481E00895E89409C097FB3EF490951D
:100BB0008095709561957F4F8F4F9F4F9923A9F036
:100BC000F92F96E9BB279395F695879577956795C5
:100BD000B795F111F8CFFAF4BB0F11F460FF1BC009
:100BE0006F5F7F4F8F4F9F4F16C0882311F096E99C
:100BF00011C0772321F09EE8872F762F05C066234A
:100C000071F096E8862F70E060E02AF09A95660F02
:100C1000771F881FDAF7880F9695879597F90895BB
:100C2000990F0008550FAA0BE0E8FEEF16161706FD
:100C3000E807F907C0F012161306E407F50798F065
:100C4000621B730B840B950B39F40A2661F0232B7E
:100C5000242B252B21F408950A2609F4A140A695FA
:100C60008FEF811D811D089597F99F6780E870E0DF
:100C700060E008959FEF80EC089500240A94161612
:100C8000170618060906089500240A94121613067A
:100C9000140605060895092E0394000C11F4882308
:100CA00052F0BB0F40F4BF2B11F460FF04C06F5F24
:100CB0007F4F8F4F9F4F089557FD9058440F551FFA
:100CC00059F05F3F71F04795880F97FB991F61F0CE
:100CD0009F3F79F087950895121613061406551F45
:100CE000F2CF4695F1DF08C0161617061806991FB1
:100CF000F1CF86957105610508940895E894BB27A6
:100D000066277727CB0197F908950E94100608F40B
:100D10008FEF08950E949D060C944B060E943D069D
:100D200038F00E94440620F0952311F00C9434060C
:100D30000C943A0611240C947F060E945C0670F312
:100D4000959FC1F3950F50E0551F629FF001729F70
:100D5000BB27F00DB11D639FAA27F00DB11DAA1F7F
:100D6000649F6627B00DA11D661F829F2227B00DCC
:100D7000A11D621F739FB00DA11D621F839FA00D57
:100D8000611D221F749F3327A00D611D231F849FA7
:100D9000600D211D822F762F6A2F11249F575040FE
:100DA0009AF0F1F088234AF0EE0FFF1FBB1F661F79
:100DB000771F881F91505040A9F79E3F510580F042
:100DC0000C9434060C947F065F3FE4F3983ED4F312
:100DD000869577956795B795F795E7959F5FC1F7E6
:100DE000FE2B880F911D9695879597F90895FA0126
:100DF000EE0FFF1F309621053105A1F16115710538
:100E000061F48038BFE39B0749F16894903881050D
:100E100061F08038BFEF9B0741F099234AF5FF3F0F
:100E2000E1053105210519F1E8940894E795D90108
:100E3000AA2329F4AB2FBE2FF85FD0F310C0FF5FB9
:100E400070F4A695E0F7F73950F019F0FF3A38F44E
:100E50009F779F930DD00F9007FC9058089546F010
:100E60000C943A0660E070E080E89FE308954FE755
:100E70009F775F934F933F932F930E94F2072F9199
:100E80003F914F915F910E948A060C944F0729F47D
:100E900016F00C9434060C947E060C943A060E94CC
:100EA0006406A8F39638A0F707F80F92E8942BE3AE
:100EB0003AEA48EB5FE70E94A0060F920F920F926A
:100EC0004DB75EB70F920E943A08ECEFF1E00E9436
:100ED00081074F915F91EF91FF91E595EE1FFF1F05
:100EE00049F0FE57E0684427EE0F441FFA95E1F7FA
:100EF0004195550B0E94B4070F9007FE0C94A8076C
:100F00000895DF93CF931F930F93FF92EF92DF9299
:100F10007B018C01689406C0DA2EEF010E949D06C9
:100F2000FE01E894A5912591359145915591A6F33F
:100F3000EF010E947905FE019701A801DA9469F793
:100F4000DF90EF90FF900F911F91CF91DF91089567
:100F50009B01AC0160E070E080E89FE30C946E08B8
:100F60000C9434060C94E0080E946406D8F399238C
:100F7000C9F3940F511DA3F39150504094F059F0D0
:100F8000882332F0660F771F881F91505040C1F7B9
:100F90009E3F51052CF7880F911D9695879597F9DF
:100FA00008955F3FACF0983E9CF0BB2786957795FF
:100FB0006795B79508F4B1609395C1F7BB0F58F7E3
:100FC00011F460FFE8CF6F5F7F4F8F4F9F4FE3CFEC
:100FD0000C947F0616F00C94E0080C943A06689482
:100FE0000C9434060E946406A8F39923C1F3AEF36F
:100FF000DF93CF931F930F93FF92C92FDD27882391
:101000002AF02197660F771F881FDAF720E030E07B
:1010100040E85FEB9FE3883920F0803E38F021966E
:101020008F770E946205E4E2F2E004C00E9462054C
:10103000E1E5F2E00E9481078B01BE01EC01FB2E8D
:101040006F5771097595771F880B990B0E94D5050D
:1010500028E132E741E35FE30E949D06AF2D98014E
:10106000AE01FF900F911F91CF91DF910E94790502
:101070000C944B06FA01DC01AA0FBB1F9B01AC01CB
:10108000BF5728F4222733274427507820C0B75170
:1010900090F4AB2F0024469537952795011CA39516
:1010A000D2F3002071F0220F331F441FB395DAF3FF
:1010B0000ED00C94610561307105A0E88A07B9462D
:1010C00030F49B01AC01662777278827907830960B
:1010D00021F0208331834283538308950E94820844
:1010E0000C944B060E94440658F00E943D0640F0C6
:1010F00029F45F3F29F00C94340651110C947F06BB
:101100000C943A060E945C0668F39923B1F35523C8
:1011100091F3951B550BBB27AA276217730784070A
:1011200038F09F5F5F4F220F331F441FAA1FA9F3A0
:1011300035D00E2E3AF0E0E832D091505040E6958E
:10114000001CCAF72BD0FE2F29D0660F771F881FEF
:10115000BB1F261737074807AB07B0E809F0BB0BE2
:10116000802DBF01FF2793585F4F3AF09E3F5105F6
:1011700078F00C9434060C947F065F3FE4F3983EBD
:10118000D4F3869577956795B795F7959F5FC9F7DF
:10119000880F911D9695879597F90895E1E0660F60
:1011A000771F881FBB1F621773078407BA0720F0D9
:1011B000621B730B840BBA0BEE1F88F7E095089542
:1011C0009F3F31F0915020F4879577956795B795BB
:1011D000880F911D9695879597F90895F894FFCFFC
:1011E0000000803F0000803F000000000000000081
:1011F0000000803F00000000000000000000000030
:041200000000803F2B
:00000001FF
